:1000000012C01FC01EC01DC04DC01BC01AC019C0E9
:1000100018C017C016C015C014C013C012C011C03C
:1000200010C00FC00EC011241FBECFEDCDBF11E018
:10003000A0E6B0E001C01D92A230B107E1F708D000
:100040001BC1DECF929B02C092980895929A0895A8
:100050000F931F938A9A3CD081E090E040E157E2F1
:1000600060E070E021E030E002E210E040D08DD0AE
:100070008091600090916100892BC9F3BFD0F7CFC8
:100080008EB581608EBD08958EB58E7F8EBD08952C
:100090002EB528602EBD29B7206429BF78949BBD5A
:1000A0008ABD08951F920F920FB60F9211248F935D
:1000B0009F93F89481E090E09093610080936000BA
:1000C00078949F918F910F900FBE0F901F9018956D
:1000D0008EB588608EBD89B7806489BF78948FE3C0
:1000E00096E09BBD8ABD8EB581608EBD0895EF926E
:1000F000FF920F931F93CF93DF93EEB5EE7FEEBD8C
:10010000A2E6B0E0E4E0880F991FEA95E1F77D01EF
:10011000E80EF91EE1E0F0E0E701F983E883FC0175
:100120003496EA0FFB1F40835183628373830896E2
:10013000A80FB91F4D935D936D937C9313973D87E3
:100140002C871F870E878EB581608EBDDF91CF9182
:100150001F910F91FF90EF900895FC01A4E0EE0F26
:10016000FF1FAA95E1F7EE59FF4F11821082089503
:10017000FC01B4E0EE0FFF1FBA95E1F7EE59FF4F17
:1001800081E090E0918380830895EF92FF920F9336
:100190001F93CF93DF93EE24FF24E70194E0CC0F6D
:1001A000DD1F9A95E1F7CE59DF4F8881998101973C
:1001B000B9F4870184E0000F111F8A95E1F70C590B
:1001C0001F4FF80180819181019751F4EE85FF85E1
:1001D00009958C859D8599838883F8011182108209
:1001E0000894E11CF11CFBE0EF16F104B1F6DF917D
:1001F000CF911F910F91FF90EF90089510926100A1
:100200001092600020E030E0F901A4E0EE0FFF1F43
:10021000AA95E1F7EE59FF4F4081518141305105D8
:1002200029F5F90174E0EE0FFF1F7A95E1F7E65921
:10023000FF4F80819181A281B3810197A109B1090A
:1002400080839183A283B38380819181A281B381D2
:100250000097A105B10551F4F90164E0EE0FFF1F0D
:100260006A95E1F7EC59FF4F518340832F5F3F4F71
:0C0270002B30310549F60895F894FFCFBB
:00000001FF
